:030000000205AA4C
:0C05AA00787FE4F6D8FD75814A0205F167
:1007D200082D0B01010101010101082500010000A2
:1007E20000000000083E0000000000000000033B83
:0F07F2000C1E0001210001220001230001240040
:1008F700200128D2011206368F21E5216522FFE566
:1009070021F45FF523E5215FF52485212224FC608E
:0B09170007047007752E0222753004E3
:0109220022B2
:1004FB003000030205A9D2001208C28F3A8E398D43
:10050B00388C371202FA8E468F47AC46AD47E41251
:10051B0002C1A804A905AA06AB07AF3AAE39AD389C
:10052B00AC37120021E4FBFA79C87842120116129B
:10053B0002FA8E498F4A120B8FAE46AF477C007D75
:10054B000A1203DC8F2DAE46AF477C007D0A1203E7
:10055B00DC8D2EAE49AF4A7C007D0A1203DC8F2F57
:10056B00AE49AF4A7C007D0A1203DC8D30120B8F33
:10057B007B007A00793B12088BE53C75F00A84F519
:10058B0031E53C75F00A8485F032E53D75F00A845F
:0F059B00F533E53D75F00A8485F034120B8F229D
:10094F00200326D2037D017C007F011208507D0118
:10095F007C007F031208507D017C007F0512085038
:0A096F007D017C007F071208502272
:060B9600200402D204223B
:100B470053890F758B18758DFCC28FD28ED2AFD299
:020B5700AB22CF
:03001B0002043F9D
:10043F00C0E0C0F0C083C082C0D075D000C000C083
:10044F0001C002C003C004C005C006C0070536E5E1
:10045F003670020535FFAE35BE010BBF9008C204E2
:10046F00753500753600AE35AF367C007D0A120348
:10047F00DCED4C7002C201AE35AF367C007D14123C
:10048F0003DCED4C7002C203AE35AF367C007D64E9
:10049F001203DCED4C7002C200AE35AF367C007D2E
:1004AF00321203DCED4C7002C202E5365407FBFF3B
:1004BF00242DF8E6FD7C0074252BF8E6FB7A00125C
:1004CF00074AE5365407FF243EF8E6FD7C00120884
:1004DF0050D007D006D005D004D003D002D001D021
:0C04EF0000D0D0D082D083D0F0D0E0321A
:090B8600D2A8D2AFD288C2B82275
:1009C500120A4C120B47120B867B007A00793B12F8
:1009D5000701120B961208F71204FB12094F120BAE
:0309E5008F80EF11
:0300030002079160
:10079100C0E0C0F0C083C082C0D075D000C000C02E
:1007A10001C002C003C004C005C006C0077D017CB2
:1007B10000E4FF120850D007D006D005D004D003C2
:1007C100D002D001D000D0D0D082D083D0F0D0E000
:0107D10032F5
:100A4C00E4F580E5A0541F44A0F5A053A01F7580C9
:0D0A5C00FFE5A0541F4480F5A053A01F2209
:060B8F0000007F21DFFEE3
:010B9500223D
:10063600E4FFC2A9C2B4D2B5D2C2D2C420B0027FEE
:100646000320B1027F0620B2027F0920B3027F0C8D
:10065600D2B4C2B5D2C2D2C420B0027F0220B10247
:100666007F0520B2027F0820B3027F0BD2B4D2B539
:10067600C2C2D2C420B0027F0120B1027F0420B2E0
:10068600027F0720B3027F0AD2B4D2B5D2C2C2C457
:1006960020B0027F0720B1027F0620B2027F05202C
:0906A600B3027F0475B0FFD2A974
:0106AF002228
:100B5900C0F9A4B0999282F88090FFBF8883C6A19A
:020B6900868E76
:10074A007580FFE5A0541F44E0F5A053A01F740173
:10075A00A807088002C333D8FCF580E5A0541F44DB
:10076A00C0F5A053A01F74592DF582740B3CF58374
:10077A00E493F580EB4A600353807FE5A0541F445D
:07078A00E0F5A053A01F22BF
:0C0801000108000109FF010B00010AFFC3
:10085000ED4C600F7401A807088002C333D8FC4236
:1008600008800E7401A807088002C333D8FCF45234
:1008700008E50865096013E508F4F580E5A0541F54
:0A0880004480F5A053A01F8508096D
:01088A00224B
:1009E800EF6005430B408003530BBFE50B650A60BE
:1009F80011850B80E5A0541F44A0F5A053A01F85C6
:030A08000B0A22B4
:100A0B00EF6005430B108003530BEFE50B650A609A
:100A1B0011850B80E5A0541F44A0F5A053A01F85A2
:030A2B000B0A2291
:100B3400E4FEC297EF1392A3EFC313FFD2970EBE46
:020B440008F0B7
:010B4600228C
:100B2000C29300C29700D29300120B34AF05120B90
:040B300034C2932216
:0A081200E50F25E0FFC374859FFF8A
:10081C00E4FDC29300C29700D29300120B34E4FFA4
:10082C00C297EDC313FD30A303430580D2970FBFCE
:10083C0008EEC29300C29700D29700C2A300D2A3C5
:03084C0000AF05F5
:01084F002286
:060701008B0C8A0D890E2D
:10070700E4FCFBFD7F8E120B20E4AB0CAA0DA90EB7
:100717008C8275830012037BFF75F00A84C454F042
:10072700FEEF75F00A84E5F04EFBEC25E0FFC3749D
:10073700849FFFAD03120B200CBC03CE7D807F8E00
:03074700020B2082
:06088B008B0C8A0D890EA2
:10089100E4F50FF50F120812EFC4540F75F00AA416
:1008A100FC120812EF540F2CAB0CAA0DA90E850FE8
:1008B100827583001203A8050FE50FC3940340D589
:0108C1002214
:040AA300D2A07F0A54
:100AA700000000000000000000000000000000AE91
:060AB700071FEE70EB22A8
:0F0B6B00D2A1120AA3C2A17F0A120AA7C2A02216
:0C0B7A00C2A1120AA3D2A17F0A020AA79E
:02092300AD071E
:10092500E4FCC2A07F0A120AA7ED30E704D2A18039
:1009350002C2A17F0A120AA7D2A0ED25E0FD7F0A17
:09094500120AA70CBC08DBC2A0D9
:01094E002286
:100A6900E4FC120AA3ED25E0FD30A103430501C210
:0C0A7900A07F0A120AA70CBC08E8AF0519
:010A8500224E
:0B0A8600120923120A91AF031209238A
:100A9100120AA3A2A1E433FDC2A07F0A120AA7AFE2
:010AA100054F
:010AA2002231
:100AF100C2A0EF24FF92A17F0A120AA7120AA3C281
:080B0100A0D2A17F0A020AA79D
:0209A000AB07A3
:1009A200120B6B7F90120A86120B6B7F9112092336
:1009B200120A91120A69AD077F01120AF1120B7A2B
:0209C200AF057F
:0109C4002210
:10000600AB07120B6B7F90120923120A917F4112E4
:050016000A86020B7ACE
:04080D0002100000D5
:040ABD007F057E0033
:100AC100EF1FAA0670011E4A600BE4FDEDC3940CF2
:050AD10050EE0D80F75E
:010AD60022FD
:020A2E00A90716
:100A3000E4FBC294E9139294120ABDD294E9C31361
:0C0A4000F90BBB08ED7F057E00020AC127
:100AD700E4FBC294ECC313FCD29430940343048028
:090AE700120ABD0BBB08EBAF04C1
:010AF00022E3
:10097900C205D2947F0C7E00120AC1C2947F507EB8
:1009890000120AC1D2947F0A7E00120AC1A294926F
:0609990005120ABDA205D3
:01099F002235
:1008C2001209797FCC120A2E7F44120A2E1209795C
:1008D2007FCC120A2E7FBE120A2E120AD7A9071245
:1008E2000AD7EFAD01FCE41202C1E4FBFA79807889
:0408F2004112021F8E
:0108F60022DF
:100B0900E4F514D290120B8FC290120B8F0514E5E5
:060B190014C3940840ED36
:010B1F0022B3
:1006B000E4F512F51353890FF58DF58B120B09D262
:1006C0008E309103308FFAC28E208F2EAF8D75122F
:1006D000008F13E513AD8BF512EDF513AE12FF7C11
:1006E000007D0A1203DC7C007D111203CA7D6412B6
:1006F00003DCEF2403FFE43EFE22C28F7E037FE78C
:0107000022D6
:10001E00020366E86480F8E933E83360110460F0A7
:10002E00ED33EC337009E8FCE9FDEAFEEBFF220448
:10003E0060DED3EB9FEA9EE99DE8C2E78CF0C2F743
:10004E0095F0400CE8CCF8E9CDF9EACEFAEBCFFB0F
:10005E0012033185D0F05804700320D5B3E8047034
:10006E00075002B2D502037092D5EC0460F7E4CCCF
:10007E00C0E0C398F8603B94186008400DD0E0FBD8
:10008E00020348E4FBFAC9FC8028E830E406E4C920
:10009E00FBE4CAFCE830E305E4C9CACBFCE854072C
:1000AE006010F8C3E913F9EA13FAEB13FBEC13FC37
:1000BE00D8F130F52FC3E49CFCEF9BFFEE9AFEEDDA
:1000CE0099FDD0E0FBEF4E4D4C701222DB03020384
:1000DE006DEC2CFCEF33FFEE33FEED33FDED30E730
:1000EE00EB020348EF2BFFEE3AFEED39FDD0E0FBBD
:1000FE0050130BBB0003020370ED13FDEE13FEEF66
:08010E0013FFEC13FC0203488F
:10011600EC4D6011E8497017ED33EC3304600DE4E3
:10012600FCFFFEFD22E933E8330470F80203661291
:10013600033158046009E4CC248150062850090292
:10014600037028400302036DC0E0EB4A7044B98097
:1001560006D0E0FB02035CEF4E701CBD8008EBFF8F
:10016600EAFEE9FD80EBE98DF0A4FEE5F00201FF71
:10017600E9CDF9EAFEEBFFEF89F0A4FCE5F0CE89C4
:10018600F0A42EFFE435F0CD89F0A42DFEE435F081
:100196008067EF4E7005BD80D780C3EF8BF0A4ACAF
:1001A600F0EE8BF0A42CFCE435F0F8EF8AF0A42CEA
:1001B600E5F038FCE433CB8DF0A42CFCE5F03BF8FD
:1001C600EE8AF0A42CFCE5F038F8E433CF89F0A4ED
:1001D6002CFCE5F038CF3400CE89F0A42FFFE5F0F3
:1001E6003EFEE433C98DF0A42EFEE5F039CD8AF04B
:1001F600A42FFFE5F03EFEE43DFD33D0E0FB5007C3
:100206000BBB000F020370EC2CFCEF33FFEE33FE4A
:06021600ED33FD02034878
:10021C00020370EC5D046005E85904700302036688
:10022C00120331580460F6EC4860F2EC7004FDFEE9
:10023C00FF22C860DB2481C85009C39860025006B5
:10024C0002036D9850CAF582E9294B4A7005AB82BE
:10025C0002035C75F0007C1A7880C3EF9BEE9AED7C
:10026C0099400DC3EF9BFFEE9AFEED99FDE842F02D
:10027C00DC23ACF0D0E0FFD0E0FED0E0FDAB822080
:10028C00E7101BEB60BAEC2CFCEF33FFEE33FEED0A
:10029C0033FD020348E803F830E705C0F075F000C1
:1002AC00EF2FFFEE33FEED33FD40B830E7C280AAEE
:1002BC0075F020800E75F010800575F0087D007EBD
:1002CC00007F003392D530D503120431EC3340104B
:1002DC00EF33FFEE33FEED33FDEC33FCD5F0ED22C6
:0E02EC00E5F0247EA2D513CC92E7CDCEFF2202
:1002FA00EDD2E7CD33EC3392D524814006E4FFFEFC
:10030A00FDFC22FCE4CFCECDCC24E0501174FF805A
:10031A00EDC3CC13CCCD13CDCE13CECF13CF0470F7
:07032A00F030D5DE020431C2
:10033100E9D2E7C933E833F892D5EDD2E7CD33EC12
:0703410033FC5002B2D5228B
:10034800EC30E7100FBF000C0EBE00080DBD000416
:100358000BEB6014A2D5EB13FCED92E7FD2274FFC2
:10036800FCFDFEFF22E480F8A2D574FF13FC7D801B
:03037800E480EF2F
:1005B6000209C5E493A3F8E493A34003F68001F28D
:1005C60008DFF48029E493A3F85407240CC8C33346
:1005D600C4540F4420C8834004F456800146F6DF15
:1005E600E4800B01020408102040809007D2E47ECC
:1005F600019360BCA3FF543F30E509541FFEE4930A
:10060600A360010ECF54C025E060A840B8E493A3D0
:10061600FAE493A3F8E493A3C8C582C8CAC583CAFB
:10062600F0A3C8C582C8CAC583CADFE9DEE780BEB3
:0108110000E6
:10037B00BB010CE58229F582E5833AF583E0225037
:10038B0006E92582F8E622BBFE06E92582F8E22281
:0D039B00E58229F582E5833AF583E493229B
:1003A800F8BB010DE58229F582E5833AF583E8F08B
:1003B800225006E92582C8F622BBFE05E92582C837
:0203C800F2221F
:1003CA00EF8DF0A4A8F0CF8CF0A428CE8DF0A42E47
:0203DA00FE2201
:1003DC00BC000BBE0029EF8DF084FFADF022E4CC05
:1003EC00F875F008EF2FFFEE33FEEC33FCEE9DECCE
:1003FC00984005FCEE9DFE0FD5F0E9E4CEFD22ED14
:10040C00F8F5F0EE8420D21CFEADF075F008EF2F5D
:10041C00FFED33FD4007985006D5F0F222C398FD4E
:05042C000FD5F0EA22EB
:0E043100C3E49FFFE49EFEE49DFDE49CFC22DC
:00000001FF
